{
  "contractName": "PuppyBreeder",
  "abi": [
    {
      "inputs": [],
      "stateMutability": "nonpayable",
      "type": "constructor"
    },
    {
      "anonymous": false,
      "inputs": [
        {
          "indexed": true,
          "internalType": "address",
          "name": "owner",
          "type": "address"
        },
        {
          "indexed": true,
          "internalType": "address",
          "name": "spender",
          "type": "address"
        },
        {
          "indexed": false,
          "internalType": "uint256",
          "name": "value",
          "type": "uint256"
        }
      ],
      "name": "Approval",
      "type": "event"
    },
    {
      "anonymous": false,
      "inputs": [
        {
          "indexed": false,
          "internalType": "address",
          "name": "recipient",
          "type": "address"
        },
        {
          "indexed": false,
          "internalType": "uint256",
          "name": "rewardAmount",
          "type": "uint256"
        },
        {
          "indexed": false,
          "internalType": "uint256",
          "name": "rewardsRemaining",
          "type": "uint256"
        }
      ],
      "name": "LogRewardReceived",
      "type": "event"
    },
    {
      "anonymous": false,
      "inputs": [
        {
          "indexed": true,
          "internalType": "address",
          "name": "previousOwner",
          "type": "address"
        },
        {
          "indexed": true,
          "internalType": "address",
          "name": "newOwner",
          "type": "address"
        }
      ],
      "name": "OwnershipTransferred",
      "type": "event"
    },
    {
      "anonymous": false,
      "inputs": [
        {
          "indexed": false,
          "internalType": "address",
          "name": "account",
          "type": "address"
        }
      ],
      "name": "Paused",
      "type": "event"
    },
    {
      "anonymous": false,
      "inputs": [
        {
          "indexed": true,
          "internalType": "address",
          "name": "from",
          "type": "address"
        },
        {
          "indexed": true,
          "internalType": "address",
          "name": "to",
          "type": "address"
        },
        {
          "indexed": false,
          "internalType": "uint256",
          "name": "value",
          "type": "uint256"
        }
      ],
      "name": "Transfer",
      "type": "event"
    },
    {
      "anonymous": false,
      "inputs": [
        {
          "indexed": false,
          "internalType": "address",
          "name": "account",
          "type": "address"
        }
      ],
      "name": "Unpaused",
      "type": "event"
    },
    {
      "inputs": [],
      "name": "DOMAIN_SEPARATOR",
      "outputs": [
        {
          "internalType": "bytes32",
          "name": "",
          "type": "bytes32"
        }
      ],
      "stateMutability": "view",
      "type": "function",
      "constant": true
    },
    {
      "inputs": [
        {
          "internalType": "address",
          "name": "owner",
          "type": "address"
        },
        {
          "internalType": "address",
          "name": "spender",
          "type": "address"
        }
      ],
      "name": "allowance",
      "outputs": [
        {
          "internalType": "uint256",
          "name": "",
          "type": "uint256"
        }
      ],
      "stateMutability": "view",
      "type": "function",
      "constant": true
    },
    {
      "inputs": [],
      "name": "amountRewarded",
      "outputs": [
        {
          "internalType": "uint256",
          "name": "",
          "type": "uint256"
        }
      ],
      "stateMutability": "view",
      "type": "function",
      "constant": true
    },
    {
      "inputs": [
        {
          "internalType": "address",
          "name": "spender",
          "type": "address"
        },
        {
          "internalType": "uint256",
          "name": "amount",
          "type": "uint256"
        }
      ],
      "name": "approve",
      "outputs": [
        {
          "internalType": "bool",
          "name": "",
          "type": "bool"
        }
      ],
      "stateMutability": "nonpayable",
      "type": "function"
    },
    {
      "inputs": [
        {
          "internalType": "address",
          "name": "account",
          "type": "address"
        }
      ],
      "name": "balanceOf",
      "outputs": [
        {
          "internalType": "uint256",
          "name": "",
          "type": "uint256"
        }
      ],
      "stateMutability": "view",
      "type": "function",
      "constant": true
    },
    {
      "inputs": [],
      "name": "decimals",
      "outputs": [
        {
          "internalType": "uint8",
          "name": "",
          "type": "uint8"
        }
      ],
      "stateMutability": "view",
      "type": "function",
      "constant": true
    },
    {
      "inputs": [
        {
          "internalType": "address",
          "name": "spender",
          "type": "address"
        },
        {
          "internalType": "uint256",
          "name": "subtractedValue",
          "type": "uint256"
        }
      ],
      "name": "decreaseAllowance",
      "outputs": [
        {
          "internalType": "bool",
          "name": "",
          "type": "bool"
        }
      ],
      "stateMutability": "nonpayable",
      "type": "function"
    },
    {
      "inputs": [
        {
          "internalType": "address",
          "name": "spender",
          "type": "address"
        },
        {
          "internalType": "uint256",
          "name": "addedValue",
          "type": "uint256"
        }
      ],
      "name": "increaseAllowance",
      "outputs": [
        {
          "internalType": "bool",
          "name": "",
          "type": "bool"
        }
      ],
      "stateMutability": "nonpayable",
      "type": "function"
    },
    {
      "inputs": [],
      "name": "maxRewards",
      "outputs": [
        {
          "internalType": "uint256",
          "name": "",
          "type": "uint256"
        }
      ],
      "stateMutability": "view",
      "type": "function",
      "constant": true
    },
    {
      "inputs": [],
      "name": "name",
      "outputs": [
        {
          "internalType": "string",
          "name": "",
          "type": "string"
        }
      ],
      "stateMutability": "view",
      "type": "function",
      "constant": true
    },
    {
      "inputs": [
        {
          "internalType": "address",
          "name": "owner",
          "type": "address"
        }
      ],
      "name": "nonces",
      "outputs": [
        {
          "internalType": "uint256",
          "name": "",
          "type": "uint256"
        }
      ],
      "stateMutability": "view",
      "type": "function",
      "constant": true
    },
    {
      "inputs": [],
      "name": "owner",
      "outputs": [
        {
          "internalType": "address",
          "name": "",
          "type": "address"
        }
      ],
      "stateMutability": "view",
      "type": "function",
      "constant": true
    },
    {
      "inputs": [],
      "name": "paused",
      "outputs": [
        {
          "internalType": "bool",
          "name": "",
          "type": "bool"
        }
      ],
      "stateMutability": "view",
      "type": "function",
      "constant": true
    },
    {
      "inputs": [
        {
          "internalType": "address",
          "name": "owner",
          "type": "address"
        },
        {
          "internalType": "address",
          "name": "spender",
          "type": "address"
        },
        {
          "internalType": "uint256",
          "name": "value",
          "type": "uint256"
        },
        {
          "internalType": "uint256",
          "name": "deadline",
          "type": "uint256"
        },
        {
          "internalType": "uint8",
          "name": "v",
          "type": "uint8"
        },
        {
          "internalType": "bytes32",
          "name": "r",
          "type": "bytes32"
        },
        {
          "internalType": "bytes32",
          "name": "s",
          "type": "bytes32"
        }
      ],
      "name": "permit",
      "outputs": [],
      "stateMutability": "nonpayable",
      "type": "function"
    },
    {
      "inputs": [],
      "name": "publicSaleRemaining",
      "outputs": [
        {
          "internalType": "uint256",
          "name": "",
          "type": "uint256"
        }
      ],
      "stateMutability": "view",
      "type": "function",
      "constant": true
    },
    {
      "inputs": [],
      "name": "rate",
      "outputs": [
        {
          "internalType": "uint256",
          "name": "",
          "type": "uint256"
        }
      ],
      "stateMutability": "view",
      "type": "function",
      "constant": true
    },
    {
      "inputs": [],
      "name": "renounceOwnership",
      "outputs": [],
      "stateMutability": "nonpayable",
      "type": "function"
    },
    {
      "inputs": [],
      "name": "symbol",
      "outputs": [
        {
          "internalType": "string",
          "name": "",
          "type": "string"
        }
      ],
      "stateMutability": "view",
      "type": "function",
      "constant": true
    },
    {
      "inputs": [],
      "name": "totalSupply",
      "outputs": [
        {
          "internalType": "uint256",
          "name": "",
          "type": "uint256"
        }
      ],
      "stateMutability": "view",
      "type": "function",
      "constant": true
    },
    {
      "inputs": [
        {
          "internalType": "address",
          "name": "recipient",
          "type": "address"
        },
        {
          "internalType": "uint256",
          "name": "amount",
          "type": "uint256"
        }
      ],
      "name": "transfer",
      "outputs": [
        {
          "internalType": "bool",
          "name": "",
          "type": "bool"
        }
      ],
      "stateMutability": "nonpayable",
      "type": "function"
    },
    {
      "inputs": [
        {
          "internalType": "address",
          "name": "sender",
          "type": "address"
        },
        {
          "internalType": "address",
          "name": "recipient",
          "type": "address"
        },
        {
          "internalType": "uint256",
          "name": "amount",
          "type": "uint256"
        }
      ],
      "name": "transferFrom",
      "outputs": [
        {
          "internalType": "bool",
          "name": "",
          "type": "bool"
        }
      ],
      "stateMutability": "nonpayable",
      "type": "function"
    },
    {
      "inputs": [
        {
          "internalType": "address",
          "name": "newOwner",
          "type": "address"
        }
      ],
      "name": "transferOwnership",
      "outputs": [],
      "stateMutability": "nonpayable",
      "type": "function"
    },
    {
      "inputs": [
        {
          "internalType": "uint256",
          "name": "amountOfPups",
          "type": "uint256"
        }
      ],
      "name": "buy",
      "outputs": [],
      "stateMutability": "payable",
      "type": "function",
      "payable": true
    },
    {
      "inputs": [
        {
          "internalType": "address",
          "name": "recipient",
          "type": "address"
        },
        {
          "internalType": "uint256",
          "name": "amountOfPups",
          "type": "uint256"
        }
      ],
      "name": "reward",
      "outputs": [],
      "stateMutability": "nonpayable",
      "type": "function"
    },
    {
      "inputs": [],
      "name": "pause",
      "outputs": [],
      "stateMutability": "nonpayable",
      "type": "function"
    },
    {
      "inputs": [],
      "name": "unpause",
      "outputs": [],
      "stateMutability": "nonpayable",
      "type": "function"
    },
    {
      "inputs": [],
      "name": "withdraw",
      "outputs": [
        {
          "internalType": "bool",
          "name": "",
          "type": "bool"
        }
      ],
      "stateMutability": "nonpayable",
      "type": "function"
    }
  ],
  "bytecode": "0x6101606040527f6e71edae12b1b97f4d1f60370fef10105fa2faae0126114a169c64845d6126c9610120908152506200003d6200038260201b60201c565b600a6200004b919062000ce2565b620aae606200005b919062000e1f565b61014090815250620000726200038260201b60201c565b600a62000080919062000ce2565b6289544062000090919062000e1f565b6007556000600855348015620000a557600080fd5b506040518060400160405280600881526020017f446f676550757073000000000000000000000000000000000000000000000000815250806040518060400160405280600181526020017f31000000000000000000000000000000000000000000000000000000000000008152506040518060400160405280600881526020017f446f6765507570730000000000000000000000000000000000000000000000008152506040518060400160405280600881526020017f444f47455055505300000000000000000000000000000000000000000000000081525081600390805190602001906200019792919062000856565b508060049080519060200190620001b092919062000856565b5050506000600560006101000a81548160ff0219169083151502179055506000620001e06200038b60201b60201c565b905080600560016101000a81548173ffffffffffffffffffffffffffffffffffffffff021916908373ffffffffffffffffffffffffffffffffffffffff1602179055508073ffffffffffffffffffffffffffffffffffffffff16600073ffffffffffffffffffffffffffffffffffffffff167f8be0079c531659141344cd1fd0a4f28419497f9722a3daafe3b4186f6b6457e060405160405180910390a35060008280519060200120905060008280519060200120905060007f8b73c3c69bb8fe3d512ecc4cf759cc79239f7b179b0ffacaa9a75d522b39400f90508260c081815250508160e081815250504660a08181525050620002e78184846200039360201b60201c565b608081815250508061010081815250505050505050506200033c30620003126200038260201b60201c565b600a62000320919062000ce2565b6298968062000330919062000e1f565b620003cf60201b60201c565b6200037c3033620003526200038260201b60201c565b600a62000360919062000ce2565b620493e062000370919062000e1f565b6200053460201b60201c565b62000fb1565b60006012905090565b600033905090565b60008383834630604051602001620003b095949392919062000af5565b6040516020818303038152906040528051906020012090509392505050565b600073ffffffffffffffffffffffffffffffffffffffff168273ffffffffffffffffffffffffffffffffffffffff16141562000442576040517f08c379a0000000000000000000000000000000000000000000000000000000008152600401620004399062000bda565b60405180910390fd5b6200045660008383620007ca60201b60201c565b80600260008282546200046a919062000c2a565b92505081905550806000808473ffffffffffffffffffffffffffffffffffffffff1673ffffffffffffffffffffffffffffffffffffffff1681526020019081526020016000206000828254620004c1919062000c2a565b925050819055508173ffffffffffffffffffffffffffffffffffffffff16600073ffffffffffffffffffffffffffffffffffffffff167fddf252ad1be2c89b69c2b068fc378daa952ba7f163c4a11628f55a4df523b3ef8360405162000528919062000bfc565b60405180910390a35050565b600073ffffffffffffffffffffffffffffffffffffffff168373ffffffffffffffffffffffffffffffffffffffff161415620005a7576040517f08c379a00000000000000000000000000000000000000000000000000000000081526004016200059e9062000bb8565b60405180910390fd5b600073ffffffffffffffffffffffffffffffffffffffff168273ffffffffffffffffffffffffffffffffffffffff1614156200061a576040517f08c379a0000000000000000000000000000000000000000000000000000000008152600401620006119062000b52565b60405180910390fd5b6200062d838383620007ca60201b60201c565b60008060008573ffffffffffffffffffffffffffffffffffffffff1673ffffffffffffffffffffffffffffffffffffffff16815260200190815260200160002054905081811015620006b6576040517f08c379a0000000000000000000000000000000000000000000000000000000008152600401620006ad9062000b74565b60405180910390fd5b8181620006c4919062000e80565b6000808673ffffffffffffffffffffffffffffffffffffffff1673ffffffffffffffffffffffffffffffffffffffff16815260200190815260200160002081905550816000808573ffffffffffffffffffffffffffffffffffffffff1673ffffffffffffffffffffffffffffffffffffffff168152602001908152602001600020600082825462000756919062000c2a565b925050819055508273ffffffffffffffffffffffffffffffffffffffff168473ffffffffffffffffffffffffffffffffffffffff167fddf252ad1be2c89b69c2b068fc378daa952ba7f163c4a11628f55a4df523b3ef84604051620007bc919062000bfc565b60405180910390a350505050565b620007da6200083a60201b60201c565b156200081d576040517f08c379a0000000000000000000000000000000000000000000000000000000008152600401620008149062000b96565b60405180910390fd5b620008358383836200085160201b620016561760201c565b505050565b6000600560009054906101000a900460ff16905090565b505050565b828054620008649062000f10565b90600052602060002090601f016020900481019282620008885760008555620008d4565b82601f10620008a357805160ff1916838001178555620008d4565b82800160010185558215620008d4579182015b82811115620008d3578251825591602001919060010190620008b6565b5b509050620008e39190620008e7565b5090565b5b8082111562000902576000816000905550600101620008e8565b5090565b620009118162000ebb565b82525050565b620009228162000ecf565b82525050565b60006200093760238362000c19565b91507f45524332303a207472616e7366657220746f20746865207a65726f206164647260008301527f65737300000000000000000000000000000000000000000000000000000000006020830152604082019050919050565b60006200099f60268362000c19565b91507f45524332303a207472616e7366657220616d6f756e742065786365656473206260008301527f616c616e636500000000000000000000000000000000000000000000000000006020830152604082019050919050565b600062000a0760108362000c19565b91507f5061757361626c653a20706175736564000000000000000000000000000000006000830152602082019050919050565b600062000a4960258362000c19565b91507f45524332303a207472616e736665722066726f6d20746865207a65726f20616460008301527f64726573730000000000000000000000000000000000000000000000000000006020830152604082019050919050565b600062000ab1601f8362000c19565b91507f45524332303a206d696e7420746f20746865207a65726f2061646472657373006000830152602082019050919050565b62000aef8162000ef9565b82525050565b600060a08201905062000b0c600083018862000917565b62000b1b602083018762000917565b62000b2a604083018662000917565b62000b39606083018562000ae4565b62000b48608083018462000906565b9695505050505050565b6000602082019050818103600083015262000b6d8162000928565b9050919050565b6000602082019050818103600083015262000b8f8162000990565b9050919050565b6000602082019050818103600083015262000bb181620009f8565b9050919050565b6000602082019050818103600083015262000bd38162000a3a565b9050919050565b6000602082019050818103600083015262000bf58162000aa2565b9050919050565b600060208201905062000c13600083018462000ae4565b92915050565b600082825260208201905092915050565b600062000c378262000ef9565b915062000c448362000ef9565b9250827fffffffffffffffffffffffffffffffffffffffffffffffffffffffffffffffff0382111562000c7c5762000c7b62000f46565b5b828201905092915050565b6000808291508390505b600185111562000cd95780860481111562000cb15762000cb062000f46565b5b600185161562000cc15780820291505b808102905062000cd18562000fa4565b945062000c91565b94509492505050565b600062000cef8262000ef9565b915062000cfc8362000f03565b925062000d2b7fffffffffffffffffffffffffffffffffffffffffffffffffffffffffffffffff848462000d33565b905092915050565b60008262000d45576001905062000e18565b8162000d55576000905062000e18565b816001811462000d6e576002811462000d795762000daf565b600191505062000e18565b60ff84111562000d8e5762000d8d62000f46565b5b8360020a91508482111562000da85762000da762000f46565b5b5062000e18565b5060208310610133831016604e8410600b841016171562000de95782820a90508381111562000de35762000de262000f46565b5b62000e18565b62000df8848484600162000c87565b9250905081840481111562000e125762000e1162000f46565b5b81810290505b9392505050565b600062000e2c8262000ef9565b915062000e398362000ef9565b9250817fffffffffffffffffffffffffffffffffffffffffffffffffffffffffffffffff048311821515161562000e755762000e7462000f46565b5b828202905092915050565b600062000e8d8262000ef9565b915062000e9a8362000ef9565b92508282101562000eb05762000eaf62000f46565b5b828203905092915050565b600062000ec88262000ed9565b9050919050565b6000819050919050565b600073ffffffffffffffffffffffffffffffffffffffff82169050919050565b6000819050919050565b600060ff82169050919050565b6000600282049050600182168062000f2957607f821691505b6020821081141562000f405762000f3f62000f75565b5b50919050565b7f4e487b7100000000000000000000000000000000000000000000000000000000600052601160045260246000fd5b7f4e487b7100000000000000000000000000000000000000000000000000000000600052602260045260246000fd5b60008160011c9050919050565b60805160a05160c05160e0516101005161012051610140516132f76200101a600039600081816108eb015281816109a001526112960152600061119901526000611b0401526000611b4601526000611b2501526000611ab101526000611ad901526132f76000f3fe60806040526004361061019c5760003560e01c806370a08231116100ec578063a9059cbb1161008a578063d619658b11610064578063d619658b146105bc578063d96a094a146105e7578063dd62ed3e14610603578063f2fde38b146106405761019c565b8063a9059cbb1461052b578063c1d77d5714610568578063d505accf146105935761019c565b80638456cb59116100c65780638456cb59146104815780638da5cb5b1461049857806395d89b41146104c3578063a457c2d7146104ee5761019c565b806370a08231146103f0578063715018a61461042d5780637ecebe00146104445761019c565b8063313ce567116101595780633ccfd60b116101335780633ccfd60b146103585780633f4ba83a146103835780634ea6b6d11461039a5780635c975abb146103c55761019c565b8063313ce567146102c55780633644e515146102f0578063395093511461031b5761019c565b806306fdde03146101a1578063095ea7b3146101cc57806318160ddd1461020957806321670f221461023457806323b872dd1461025d5780632c4e722e1461029a575b600080fd5b3480156101ad57600080fd5b506101b6610669565b6040516101c39190612b87565b60405180910390f35b3480156101d857600080fd5b506101f360048036038101906101ee9190612147565b6106fb565b6040516102009190612a58565b60405180910390f35b34801561021557600080fd5b5061021e610719565b60405161022b9190612e69565b60405180910390f35b34801561024057600080fd5b5061025b60048036038101906102569190612147565b610723565b005b34801561026957600080fd5b50610284600480360381019061027f919061205a565b6109e5565b6040516102919190612a58565b60405180910390f35b3480156102a657600080fd5b506102af610ae6565b6040516102bc9190612e69565b60405180910390f35b3480156102d157600080fd5b506102da610af0565b6040516102e79190612e84565b60405180910390f35b3480156102fc57600080fd5b50610305610af9565b6040516103129190612a73565b60405180910390f35b34801561032757600080fd5b50610342600480360381019061033d9190612147565b610b08565b60405161034f9190612a58565b60405180910390f35b34801561036457600080fd5b5061036d610bb4565b60405161037a9190612a58565b60405180910390f35b34801561038f57600080fd5b50610398610c80565b005b3480156103a657600080fd5b506103af610d06565b6040516103bc9190612e69565b60405180910390f35b3480156103d157600080fd5b506103da610d0c565b6040516103e79190612a58565b60405180910390f35b3480156103fc57600080fd5b5061041760048036038101906104129190611ff5565b610d23565b6040516104249190612e69565b60405180910390f35b34801561043957600080fd5b50610442610d6b565b005b34801561045057600080fd5b5061046b60048036038101906104669190611ff5565b610ea8565b6040516104789190612e69565b60405180910390f35b34801561048d57600080fd5b50610496610ef8565b005b3480156104a457600080fd5b506104ad610f7e565b6040516104ba9190612a06565b60405180910390f35b3480156104cf57600080fd5b506104d8610fa8565b6040516104e59190612b87565b60405180910390f35b3480156104fa57600080fd5b5061051560048036038101906105109190612147565b61103a565b6040516105229190612a58565b60405180910390f35b34801561053757600080fd5b50610552600480360381019061054d9190612147565b61112e565b60405161055f9190612a58565b60405180910390f35b34801561057457600080fd5b5061057d61114c565b60405161058a9190612e69565b60405180910390f35b34801561059f57600080fd5b506105ba60048036038101906105b591906120a9565b611152565b005b3480156105c857600080fd5b506105d1611294565b6040516105de9190612e69565b60405180910390f35b61060160048036038101906105fc9190612183565b6112b8565b005b34801561060f57600080fd5b5061062a6004803603810190610625919061201e565b611423565b6040516106379190612e69565b60405180910390f35b34801561064c57600080fd5b5061066760048036038101906106629190611ff5565b6114aa565b005b606060038054610678906131ad565b80601f01602080910402602001604051908101604052809291908181526020018280546106a4906131ad565b80156106f15780601f106106c6576101008083540402835291602001916106f1565b820191906000526020600020905b8154815290600101906020018083116106d457829003601f168201915b5050505050905090565b600061070f61070861165b565b8484611663565b6001905092915050565b6000600254905090565b61072b61165b565b73ffffffffffffffffffffffffffffffffffffffff16610749610f7e565b73ffffffffffffffffffffffffffffffffffffffff161461079f576040517f08c379a000000000000000000000000000000000000000000000000000000000815260040161079690612d69565b60405180910390fd5b6107a7610d0c565b156107e7576040517f08c379a00000000000000000000000000000000000000000000000000000000081526004016107de90612ce9565b60405180910390fd5b8173ffffffffffffffffffffffffffffffffffffffff163373ffffffffffffffffffffffffffffffffffffffff161415610856576040517f08c379a000000000000000000000000000000000000000000000000000000000815260040161084d90612d89565b60405180910390fd5b8173ffffffffffffffffffffffffffffffffffffffff16600073ffffffffffffffffffffffffffffffffffffffff1614156108c6576040517f08c379a00000000000000000000000000000000000000000000000000000000081526004016108bd90612c09565b60405180910390fd5b60006108d0610af0565b600a6108dc9190612f6f565b826108e7919061308d565b90507f0000000000000000000000000000000000000000000000000000000000000000816008546109189190612ec6565b1115610959576040517f08c379a000000000000000000000000000000000000000000000000000000000815260040161095090612e29565b60405180910390fd5b806008546109679190612ec6565b60088190555061097830848361182e565b7f5722c478fc1a621b008e808b6a158dfe83e2b76a09464e886fef6a0fbedaf97a83826008547f00000000000000000000000000000000000000000000000000000000000000006109c991906130e7565b6040516109d893929190612a21565b60405180910390a1505050565b60006109f284848461182e565b6000600160008673ffffffffffffffffffffffffffffffffffffffff1673ffffffffffffffffffffffffffffffffffffffff1681526020019081526020016000206000610a3d61165b565b73ffffffffffffffffffffffffffffffffffffffff1673ffffffffffffffffffffffffffffffffffffffff16815260200190815260200160002054905082811015610abd576040517f08c379a0000000000000000000000000000000000000000000000000000000008152600401610ab490612d49565b60405180910390fd5b610ada85610ac961165b565b8584610ad591906130e7565b611663565b60019150509392505050565b65b5e620f4800081565b60006012905090565b6000610b03611aad565b905090565b6000610baa610b1561165b565b848460016000610b2361165b565b73ffffffffffffffffffffffffffffffffffffffff1673ffffffffffffffffffffffffffffffffffffffff16815260200190815260200160002060008873ffffffffffffffffffffffffffffffffffffffff1673ffffffffffffffffffffffffffffffffffffffff16815260200190815260200160002054610ba59190612ec6565b611663565b6001905092915050565b6000610bbe61165b565b73ffffffffffffffffffffffffffffffffffffffff16610bdc610f7e565b73ffffffffffffffffffffffffffffffffffffffff1614610c32576040517f08c379a0000000000000000000000000000000000000000000000000000000008152600401610c2990612d69565b60405180910390fd5b3373ffffffffffffffffffffffffffffffffffffffff166108fc479081150290604051600060405180830381858888f19350505050158015610c78573d6000803e3d6000fd5b506001905090565b610c8861165b565b73ffffffffffffffffffffffffffffffffffffffff16610ca6610f7e565b73ffffffffffffffffffffffffffffffffffffffff1614610cfc576040517f08c379a0000000000000000000000000000000000000000000000000000000008152600401610cf390612d69565b60405180910390fd5b610d04611b70565b565b60085481565b6000600560009054906101000a900460ff16905090565b60008060008373ffffffffffffffffffffffffffffffffffffffff1673ffffffffffffffffffffffffffffffffffffffff168152602001908152602001600020549050919050565b610d7361165b565b73ffffffffffffffffffffffffffffffffffffffff16610d91610f7e565b73ffffffffffffffffffffffffffffffffffffffff1614610de7576040517f08c379a0000000000000000000000000000000000000000000000000000000008152600401610dde90612d69565b60405180910390fd5b600073ffffffffffffffffffffffffffffffffffffffff16600560019054906101000a900473ffffffffffffffffffffffffffffffffffffffff1673ffffffffffffffffffffffffffffffffffffffff167f8be0079c531659141344cd1fd0a4f28419497f9722a3daafe3b4186f6b6457e060405160405180910390a36000600560016101000a81548173ffffffffffffffffffffffffffffffffffffffff021916908373ffffffffffffffffffffffffffffffffffffffff160217905550565b6000610ef1600660008473ffffffffffffffffffffffffffffffffffffffff1673ffffffffffffffffffffffffffffffffffffffff168152602001908152602001600020611c12565b9050919050565b610f0061165b565b73ffffffffffffffffffffffffffffffffffffffff16610f1e610f7e565b73ffffffffffffffffffffffffffffffffffffffff1614610f74576040517f08c379a0000000000000000000000000000000000000000000000000000000008152600401610f6b90612d69565b60405180910390fd5b610f7c611c20565b565b6000600560019054906101000a900473ffffffffffffffffffffffffffffffffffffffff16905090565b606060048054610fb7906131ad565b80601f0160208091040260200160405190810160405280929190818152602001828054610fe3906131ad565b80156110305780601f1061100557610100808354040283529160200191611030565b820191906000526020600020905b81548152906001019060200180831161101357829003601f168201915b5050505050905090565b6000806001600061104961165b565b73ffffffffffffffffffffffffffffffffffffffff1673ffffffffffffffffffffffffffffffffffffffff16815260200190815260200160002060008573ffffffffffffffffffffffffffffffffffffffff1673ffffffffffffffffffffffffffffffffffffffff16815260200190815260200160002054905082811015611106576040517f08c379a00000000000000000000000000000000000000000000000000000000081526004016110fd90612e49565b60405180910390fd5b61112361111161165b565b85858461111e91906130e7565b611663565b600191505092915050565b600061114261113b61165b565b848461182e565b6001905092915050565b60075481565b83421115611195576040517f08c379a000000000000000000000000000000000000000000000000000000000815260040161118c90612c89565b60405180910390fd5b60007f00000000000000000000000000000000000000000000000000000000000000008888886111c48c611cc3565b896040516020016111da96959493929190612a8e565b60405160208183030381529060405280519060200120905060006111fd82611d21565b9050600061120d82878787611d3b565b90508973ffffffffffffffffffffffffffffffffffffffff168173ffffffffffffffffffffffffffffffffffffffff161461127d576040517f08c379a000000000000000000000000000000000000000000000000000000000815260040161127490612d29565b60405180910390fd5b6112888a8a8a611663565b50505050505050505050565b7f000000000000000000000000000000000000000000000000000000000000000081565b6112c0610d0c565b15611300576040517f08c379a00000000000000000000000000000000000000000000000000000000081526004016112f790612ce9565b60405180910390fd5b600061130a610af0565b600a6113169190612f6f565b82611321919061308d565b9050806007541015611368576040517f08c379a000000000000000000000000000000000000000000000000000000000815260040161135f90612de9565b60405180910390fd5b6000600754116113ad576040517f08c379a00000000000000000000000000000000000000000000000000000000081526004016113a490612c29565b60405180910390fd5b65b5e620f48000826113bf919061308d565b3414611400576040517f08c379a00000000000000000000000000000000000000000000000000000000081526004016113f790612da9565b60405180910390fd5b8060075461140e91906130e7565b60078190555061141f30338361182e565b5050565b6000600160008473ffffffffffffffffffffffffffffffffffffffff1673ffffffffffffffffffffffffffffffffffffffff16815260200190815260200160002060008373ffffffffffffffffffffffffffffffffffffffff1673ffffffffffffffffffffffffffffffffffffffff16815260200190815260200160002054905092915050565b6114b261165b565b73ffffffffffffffffffffffffffffffffffffffff166114d0610f7e565b73ffffffffffffffffffffffffffffffffffffffff1614611526576040517f08c379a000000000000000000000000000000000000000000000000000000000815260040161151d90612d69565b60405180910390fd5b600073ffffffffffffffffffffffffffffffffffffffff168173ffffffffffffffffffffffffffffffffffffffff161415611596576040517f08c379a000000000000000000000000000000000000000000000000000000000815260040161158d90612c49565b60405180910390fd5b8073ffffffffffffffffffffffffffffffffffffffff16600560019054906101000a900473ffffffffffffffffffffffffffffffffffffffff1673ffffffffffffffffffffffffffffffffffffffff167f8be0079c531659141344cd1fd0a4f28419497f9722a3daafe3b4186f6b6457e060405160405180910390a380600560016101000a81548173ffffffffffffffffffffffffffffffffffffffff021916908373ffffffffffffffffffffffffffffffffffffffff16021790555050565b505050565b600033905090565b600073ffffffffffffffffffffffffffffffffffffffff168373ffffffffffffffffffffffffffffffffffffffff1614156116d3576040517f08c379a00000000000000000000000000000000000000000000000000000000081526004016116ca90612e09565b60405180910390fd5b600073ffffffffffffffffffffffffffffffffffffffff168273ffffffffffffffffffffffffffffffffffffffff161415611743576040517f08c379a000000000000000000000000000000000000000000000000000000000815260040161173a90612c69565b60405180910390fd5b80600160008573ffffffffffffffffffffffffffffffffffffffff1673ffffffffffffffffffffffffffffffffffffffff16815260200190815260200160002060008473ffffffffffffffffffffffffffffffffffffffff1673ffffffffffffffffffffffffffffffffffffffff168152602001908152602001600020819055508173ffffffffffffffffffffffffffffffffffffffff168373ffffffffffffffffffffffffffffffffffffffff167f8c5be1e5ebec7d5bd14f71427d1e84f3dd0314c0f7b2291e5b200ac8c7c3b925836040516118219190612e69565b60405180910390a3505050565b600073ffffffffffffffffffffffffffffffffffffffff168373ffffffffffffffffffffffffffffffffffffffff16141561189e576040517f08c379a000000000000000000000000000000000000000000000000000000000815260040161189590612dc9565b60405180910390fd5b600073ffffffffffffffffffffffffffffffffffffffff168273ffffffffffffffffffffffffffffffffffffffff16141561190e576040517f08c379a000000000000000000000000000000000000000000000000000000000815260040161190590612bc9565b60405180910390fd5b611919838383611ec6565b60008060008573ffffffffffffffffffffffffffffffffffffffff1673ffffffffffffffffffffffffffffffffffffffff1681526020019081526020016000205490508181101561199f576040517f08c379a000000000000000000000000000000000000000000000000000000000815260040161199690612ca9565b60405180910390fd5b81816119ab91906130e7565b6000808673ffffffffffffffffffffffffffffffffffffffff1673ffffffffffffffffffffffffffffffffffffffff16815260200190815260200160002081905550816000808573ffffffffffffffffffffffffffffffffffffffff1673ffffffffffffffffffffffffffffffffffffffff1681526020019081526020016000206000828254611a3b9190612ec6565b925050819055508273ffffffffffffffffffffffffffffffffffffffff168473ffffffffffffffffffffffffffffffffffffffff167fddf252ad1be2c89b69c2b068fc378daa952ba7f163c4a11628f55a4df523b3ef84604051611a9f9190612e69565b60405180910390a350505050565b60007f0000000000000000000000000000000000000000000000000000000000000000461415611aff577f00000000000000000000000000000000000000000000000000000000000000009050611b6d565b611b6a7f00000000000000000000000000000000000000000000000000000000000000007f00000000000000000000000000000000000000000000000000000000000000007f0000000000000000000000000000000000000000000000000000000000000000611f1e565b90505b90565b611b78610d0c565b611bb7576040517f08c379a0000000000000000000000000000000000000000000000000000000008152600401611bae90612be9565b60405180910390fd5b6000600560006101000a81548160ff0219169083151502179055507f5db9ee0a495bf2e6ff9c91a7834c1ba4fdd244a5e8aa4e537bd38aeae4b073aa611bfb61165b565b604051611c089190612a06565b60405180910390a1565b600081600001549050919050565b611c28610d0c565b15611c68576040517f08c379a0000000000000000000000000000000000000000000000000000000008152600401611c5f90612ce9565b60405180910390fd5b6001600560006101000a81548160ff0219169083151502179055507f62e78cea01bee320cd4e420270b5ea74000d11b0c9f74754ebdbfc544b05a258611cac61165b565b604051611cb99190612a06565b60405180910390a1565b600080600660008473ffffffffffffffffffffffffffffffffffffffff1673ffffffffffffffffffffffffffffffffffffffff1681526020019081526020016000209050611d1081611c12565b9150611d1b81611f58565b50919050565b6000611d34611d2e611aad565b83611f6e565b9050919050565b60007f7fffffffffffffffffffffffffffffff5d576e7357a4501ddfe92f46681b20a08260001c1115611da3576040517f08c379a0000000000000000000000000000000000000000000000000000000008152600401611d9a90612cc9565b60405180910390fd5b601b8460ff161480611db85750601c8460ff16145b611df7576040517f08c379a0000000000000000000000000000000000000000000000000000000008152600401611dee90612d09565b60405180910390fd5b600060018686868660405160008152602001604052604051611e1c9493929190612b42565b6020604051602081039080840390855afa158015611e3e573d6000803e3d6000fd5b505050602060405103519050600073ffffffffffffffffffffffffffffffffffffffff168173ffffffffffffffffffffffffffffffffffffffff161415611eba576040517f08c379a0000000000000000000000000000000000000000000000000000000008152600401611eb190612ba9565b60405180910390fd5b80915050949350505050565b611ece610d0c565b15611f0e576040517f08c379a0000000000000000000000000000000000000000000000000000000008152600401611f0590612ce9565b60405180910390fd5b611f19838383611656565b505050565b60008383834630604051602001611f39959493929190612aef565b6040516020818303038152906040528051906020012090509392505050565b6001816000016000828254019250508190555050565b60008282604051602001611f839291906129cf565b60405160208183030381529060405280519060200120905092915050565b600081359050611fb081613265565b92915050565b600081359050611fc58161327c565b92915050565b600081359050611fda81613293565b92915050565b600081359050611fef816132aa565b92915050565b60006020828403121561200757600080fd5b600061201584828501611fa1565b91505092915050565b6000806040838503121561203157600080fd5b600061203f85828601611fa1565b925050602061205085828601611fa1565b9150509250929050565b60008060006060848603121561206f57600080fd5b600061207d86828701611fa1565b935050602061208e86828701611fa1565b925050604061209f86828701611fcb565b9150509250925092565b600080600080600080600060e0888a0312156120c457600080fd5b60006120d28a828b01611fa1565b97505060206120e38a828b01611fa1565b96505060406120f48a828b01611fcb565b95505060606121058a828b01611fcb565b94505060806121168a828b01611fe0565b93505060a06121278a828b01611fb6565b92505060c06121388a828b01611fb6565b91505092959891949750929550565b6000806040838503121561215a57600080fd5b600061216885828601611fa1565b925050602061217985828601611fcb565b9150509250929050565b60006020828403121561219557600080fd5b60006121a384828501611fcb565b91505092915050565b6121b58161311b565b82525050565b6121c48161312d565b82525050565b6121d381613139565b82525050565b6121ea6121e582613139565b6131df565b82525050565b60006121fb82612e9f565b6122058185612eaa565b935061221581856020860161317a565b61221e81613247565b840191505092915050565b6000612236601883612eaa565b91507f45434453413a20696e76616c6964207369676e617475726500000000000000006000830152602082019050919050565b6000612276602383612eaa565b91507f45524332303a207472616e7366657220746f20746865207a65726f206164647260008301527f65737300000000000000000000000000000000000000000000000000000000006020830152604082019050919050565b60006122dc601483612eaa565b91507f5061757361626c653a206e6f74207061757365640000000000000000000000006000830152602082019050919050565b600061231c601983612eaa565b91507f43616e277420726577617264206275726e2061646472657373000000000000006000830152602082019050919050565b600061235c601f83612eaa565b91507f4d696e7420697320656d7074792c206275792066726f6d206d61726b657473006000830152602082019050919050565b600061239c602683612eaa565b91507f4f776e61626c653a206e6577206f776e657220697320746865207a65726f206160008301527f64647265737300000000000000000000000000000000000000000000000000006020830152604082019050919050565b6000612402602283612eaa565b91507f45524332303a20617070726f766520746f20746865207a65726f20616464726560008301527f73730000000000000000000000000000000000000000000000000000000000006020830152604082019050919050565b6000612468600283612ebb565b91507f19010000000000000000000000000000000000000000000000000000000000006000830152600282019050919050565b60006124a8601d83612eaa565b91507f45524332305065726d69743a206578706972656420646561646c696e650000006000830152602082019050919050565b60006124e8602683612eaa565b91507f45524332303a207472616e7366657220616d6f756e742065786365656473206260008301527f616c616e636500000000000000000000000000000000000000000000000000006020830152604082019050919050565b600061254e602283612eaa565b91507f45434453413a20696e76616c6964207369676e6174757265202773272076616c60008301527f75650000000000000000000000000000000000000000000000000000000000006020830152604082019050919050565b60006125b4601083612eaa565b91507f5061757361626c653a20706175736564000000000000000000000000000000006000830152602082019050919050565b60006125f4602283612eaa565b91507f45434453413a20696e76616c6964207369676e6174757265202776272076616c60008301527f75650000000000000000000000000000000000000000000000000000000000006020830152604082019050919050565b600061265a601e83612eaa565b91507f45524332305065726d69743a20696e76616c6964207369676e617475726500006000830152602082019050919050565b600061269a602883612eaa565b91507f45524332303a207472616e7366657220616d6f756e742065786365656473206160008301527f6c6c6f77616e63650000000000000000000000000000000000000000000000006020830152604082019050919050565b6000612700602083612eaa565b91507f4f776e61626c653a2063616c6c6572206973206e6f7420746865206f776e65726000830152602082019050919050565b6000612740601583612eaa565b91507f43616e277420726577617264206465706c6f79657200000000000000000000006000830152602082019050919050565b6000612780602783612eaa565b91507f53656e6420657861637420616d6f756e7420746f206275792031203d20302e3060008301527f30303220424e42000000000000000000000000000000000000000000000000006020830152604082019050919050565b60006127e6602583612eaa565b91507f45524332303a207472616e736665722066726f6d20746865207a65726f20616460008301527f64726573730000000000000000000000000000000000000000000000000000006020830152604082019050919050565b600061284c602183612eaa565b91507f4c6f77657220726571756573742c206e6f7420656e6f75676820696e204d696e60008301527f74000000000000000000000000000000000000000000000000000000000000006020830152604082019050919050565b60006128b2602483612eaa565b91507f45524332303a20617070726f76652066726f6d20746865207a65726f2061646460008301527f72657373000000000000000000000000000000000000000000000000000000006020830152604082019050919050565b6000612918601f83612eaa565b91507f57696c6c20657863656564206d61782e7265776172647320616c6c6f776564006000830152602082019050919050565b6000612958602583612eaa565b91507f45524332303a2064656372656173656420616c6c6f77616e63652062656c6f7760008301527f207a65726f0000000000000000000000000000000000000000000000000000006020830152604082019050919050565b6129ba81613163565b82525050565b6129c98161316d565b82525050565b60006129da8261245b565b91506129e682856121d9565b6020820191506129f682846121d9565b6020820191508190509392505050565b6000602082019050612a1b60008301846121ac565b92915050565b6000606082019050612a3660008301866121ac565b612a4360208301856129b1565b612a5060408301846129b1565b949350505050565b6000602082019050612a6d60008301846121bb565b92915050565b6000602082019050612a8860008301846121ca565b92915050565b600060c082019050612aa360008301896121ca565b612ab060208301886121ac565b612abd60408301876121ac565b612aca60608301866129b1565b612ad760808301856129b1565b612ae460a08301846129b1565b979650505050505050565b600060a082019050612b0460008301886121ca565b612b1160208301876121ca565b612b1e60408301866121ca565b612b2b60608301856129b1565b612b3860808301846121ac565b9695505050505050565b6000608082019050612b5760008301876121ca565b612b6460208301866129c0565b612b7160408301856121ca565b612b7e60608301846121ca565b95945050505050565b60006020820190508181036000830152612ba181846121f0565b905092915050565b60006020820190508181036000830152612bc281612229565b9050919050565b60006020820190508181036000830152612be281612269565b9050919050565b60006020820190508181036000830152612c02816122cf565b9050919050565b60006020820190508181036000830152612c228161230f565b9050919050565b60006020820190508181036000830152612c428161234f565b9050919050565b60006020820190508181036000830152612c628161238f565b9050919050565b60006020820190508181036000830152612c82816123f5565b9050919050565b60006020820190508181036000830152612ca28161249b565b9050919050565b60006020820190508181036000830152612cc2816124db565b9050919050565b60006020820190508181036000830152612ce281612541565b9050919050565b60006020820190508181036000830152612d02816125a7565b9050919050565b60006020820190508181036000830152612d22816125e7565b9050919050565b60006020820190508181036000830152612d428161264d565b9050919050565b60006020820190508181036000830152612d628161268d565b9050919050565b60006020820190508181036000830152612d82816126f3565b9050919050565b60006020820190508181036000830152612da281612733565b9050919050565b60006020820190508181036000830152612dc281612773565b9050919050565b60006020820190508181036000830152612de2816127d9565b9050919050565b60006020820190508181036000830152612e028161283f565b9050919050565b60006020820190508181036000830152612e22816128a5565b9050919050565b60006020820190508181036000830152612e428161290b565b9050919050565b60006020820190508181036000830152612e628161294b565b9050919050565b6000602082019050612e7e60008301846129b1565b92915050565b6000602082019050612e9960008301846129c0565b92915050565b600081519050919050565b600082825260208201905092915050565b600081905092915050565b6000612ed182613163565b9150612edc83613163565b9250827fffffffffffffffffffffffffffffffffffffffffffffffffffffffffffffffff03821115612f1157612f106131e9565b5b828201905092915050565b6000808291508390505b6001851115612f6657808604811115612f4257612f416131e9565b5b6001851615612f515780820291505b8081029050612f5f85613258565b9450612f26565b94509492505050565b6000612f7a82613163565b9150612f858361316d565b9250612fb27fffffffffffffffffffffffffffffffffffffffffffffffffffffffffffffffff8484612fba565b905092915050565b600082612fca5760019050613086565b81612fd85760009050613086565b8160018114612fee5760028114612ff857613027565b6001915050613086565b60ff84111561300a576130096131e9565b5b8360020a915084821115613021576130206131e9565b5b50613086565b5060208310610133831016604e8410600b841016171561305c5782820a905083811115613057576130566131e9565b5b613086565b6130698484846001612f1c565b925090508184048111156130805761307f6131e9565b5b81810290505b9392505050565b600061309882613163565b91506130a383613163565b9250817fffffffffffffffffffffffffffffffffffffffffffffffffffffffffffffffff04831182151516156130dc576130db6131e9565b5b828202905092915050565b60006130f282613163565b91506130fd83613163565b9250828210156131105761310f6131e9565b5b828203905092915050565b600061312682613143565b9050919050565b60008115159050919050565b6000819050919050565b600073ffffffffffffffffffffffffffffffffffffffff82169050919050565b6000819050919050565b600060ff82169050919050565b60005b8381101561319857808201518184015260208101905061317d565b838111156131a7576000848401525b50505050565b600060028204905060018216806131c557607f821691505b602082108114156131d9576131d8613218565b5b50919050565b6000819050919050565b7f4e487b7100000000000000000000000000000000000000000000000000000000600052601160045260246000fd5b7f4e487b7100000000000000000000000000000000000000000000000000000000600052602260045260246000fd5b6000601f19601f8301169050919050565b60008160011c9050919050565b61326e8161311b565b811461327957600080fd5b50565b61328581613139565b811461329057600080fd5b50565b61329c81613163565b81146132a757600080fd5b50565b6132b38161316d565b81146132be57600080fd5b5056fea2646970667358221220ca84ed73a4c6de3fee87bfe33ebeb1ca1e159bc255bf5e75d9cf887e72d1562364736f6c63430008000033",
  "immutableReferences": {
    "24": [
      {
        "length": 32,
        "start": 2283
      },
      {
        "length": 32,
        "start": 2464
      },
      {
        "length": 32,
        "start": 4758
      }
    ],
    "1121": [
      {
        "length": 32,
        "start": 4505
      }
    ],
    "1532": [
      {
        "length": 32,
        "start": 6873
      }
    ],
    "1534": [
      {
        "length": 32,
        "start": 6833
      }
    ],
    "1536": [
      {
        "length": 32,
        "start": 6949
      }
    ],
    "1538": [
      {
        "length": 32,
        "start": 6982
      }
    ],
    "1540": [
      {
        "length": 32,
        "start": 6916
      }
    ]
  },
  "source": "// SPDX-License-Identifier: MIT\npragma solidity ^0.8.0;\n\nimport \"@openzeppelin/contracts/token/ERC20/ERC20.sol\";\nimport \"@openzeppelin/contracts/security/Pausable.sol\";\nimport \"@openzeppelin/contracts/access/Ownable.sol\";\nimport \"@openzeppelin/contracts/token/ERC20/extensions/draft-ERC20Permit.sol\";\n\ncontract PuppyBreeder is ERC20, Pausable, Ownable, ERC20Permit {\n\n    uint256 constant public rate = 200000000000000;\n    uint256 immutable public maxRewards = 700000 * 10 ** decimals();\n    uint256 public publicSaleRemaining = 9000000 * 10 ** decimals();\n    uint256 public amountRewarded = 0;\n\n    event LogRewardReceived(address recipient, uint256 rewardAmount, uint256 rewardsRemaining);\n\n\n    constructor() ERC20(\"DogePups\", \"DOGEPUPS\") ERC20Permit(\"DogePups\") {\n        _mint(address(this), 10000000 * 10 ** decimals());\n\n        //Founder share\n        _transfer(address(this), msg.sender, 300000 * 10 ** decimals());\n    }\n\n    function buy(uint256 amountOfPups) external payable whenNotPaused {\n\n      uint256 amtWithDecimals = amountOfPups * 10 ** decimals();\n      require(publicSaleRemaining >= amtWithDecimals, \"Lower request, not enough in Mint\");\n      require(publicSaleRemaining > 0, \"Mint is empty, buy from markets\");\n      require(msg.value == (amountOfPups * rate), \"Send exact amount to buy 1 = 0.0002 BNB\");\n\n      //clear ? let's gooo\n      publicSaleRemaining = publicSaleRemaining - amtWithDecimals;\n      _transfer(address(this), msg.sender, amtWithDecimals);\n    }\n\n    function reward(address recipient, uint256 amountOfPups) external onlyOwner whenNotPaused {\n      require(msg.sender != recipient, \"Can't reward deployer\");\n      require(address(0x0) != recipient, \"Can't reward burn address\");\n      uint256 amtWithDecimals = amountOfPups * 10 ** decimals();\n      require((amountRewarded  +  amtWithDecimals) <=  maxRewards, \"Will exceed max.rewards allowed\");\n\n      //clear to go\n\n      amountRewarded = amountRewarded + amtWithDecimals;\n      _transfer(address(this), recipient, amtWithDecimals);\n      emit LogRewardReceived(recipient, amtWithDecimals, (maxRewards - amountRewarded) );\n    }\n\n\n    function pause() public onlyOwner {\n        _pause();\n    }\n\n    function unpause() public onlyOwner {\n        _unpause();\n    }\n\n    /**\n     * Withdraw balance to wallet\n     */\n    function withdraw() public onlyOwner returns(bool) {\n       payable(msg.sender).transfer(address(this).balance);\n       return true;\n    }\n\n    function _beforeTokenTransfer(address from, address to, uint256 amount)\n        internal\n        whenNotPaused\n        override\n    {\n        super._beforeTokenTransfer(from, to, amount);\n    }\n}\n",
  "sourcePath": "/home/rprice/Downloads/dogepups/contracts/PuppyBreeder.sol",
  "compiler": {
    "name": "solc",
    "version": "0.8.0+commit.c7dfd78e.Emscripten.clang"
  },
  "schemaVersion": "3.3.4",
  "updatedAt": "2021-05-23T01:08:19.750Z",
  "networkType": "ethereum",
  "devdoc": {
    "kind": "dev",
    "methods": {
      "DOMAIN_SEPARATOR()": {
        "details": "See {IERC20Permit-DOMAIN_SEPARATOR}."
      },
      "allowance(address,address)": {
        "details": "See {IERC20-allowance}."
      },
      "approve(address,uint256)": {
        "details": "See {IERC20-approve}. Requirements: - `spender` cannot be the zero address."
      },
      "balanceOf(address)": {
        "details": "See {IERC20-balanceOf}."
      },
      "decimals()": {
        "details": "Returns the number of decimals used to get its user representation. For example, if `decimals` equals `2`, a balance of `505` tokens should be displayed to a user as `5,05` (`505 / 10 ** 2`). Tokens usually opt for a value of 18, imitating the relationship between Ether and Wei. This is the value {ERC20} uses, unless this function is overridden; NOTE: This information is only used for _display_ purposes: it in no way affects any of the arithmetic of the contract, including {IERC20-balanceOf} and {IERC20-transfer}."
      },
      "decreaseAllowance(address,uint256)": {
        "details": "Atomically decreases the allowance granted to `spender` by the caller. This is an alternative to {approve} that can be used as a mitigation for problems described in {IERC20-approve}. Emits an {Approval} event indicating the updated allowance. Requirements: - `spender` cannot be the zero address. - `spender` must have allowance for the caller of at least `subtractedValue`."
      },
      "increaseAllowance(address,uint256)": {
        "details": "Atomically increases the allowance granted to `spender` by the caller. This is an alternative to {approve} that can be used as a mitigation for problems described in {IERC20-approve}. Emits an {Approval} event indicating the updated allowance. Requirements: - `spender` cannot be the zero address."
      },
      "name()": {
        "details": "Returns the name of the token."
      },
      "nonces(address)": {
        "details": "See {IERC20Permit-nonces}."
      },
      "owner()": {
        "details": "Returns the address of the current owner."
      },
      "paused()": {
        "details": "Returns true if the contract is paused, and false otherwise."
      },
      "permit(address,address,uint256,uint256,uint8,bytes32,bytes32)": {
        "details": "See {IERC20Permit-permit}."
      },
      "renounceOwnership()": {
        "details": "Leaves the contract without owner. It will not be possible to call `onlyOwner` functions anymore. Can only be called by the current owner. NOTE: Renouncing ownership will leave the contract without an owner, thereby removing any functionality that is only available to the owner."
      },
      "symbol()": {
        "details": "Returns the symbol of the token, usually a shorter version of the name."
      },
      "totalSupply()": {
        "details": "See {IERC20-totalSupply}."
      },
      "transfer(address,uint256)": {
        "details": "See {IERC20-transfer}. Requirements: - `recipient` cannot be the zero address. - the caller must have a balance of at least `amount`."
      },
      "transferFrom(address,address,uint256)": {
        "details": "See {IERC20-transferFrom}. Emits an {Approval} event indicating the updated allowance. This is not required by the EIP. See the note at the beginning of {ERC20}. Requirements: - `sender` and `recipient` cannot be the zero address. - `sender` must have a balance of at least `amount`. - the caller must have allowance for ``sender``'s tokens of at least `amount`."
      },
      "transferOwnership(address)": {
        "details": "Transfers ownership of the contract to a new account (`newOwner`). Can only be called by the current owner."
      }
    },
    "version": 1
  },
  "userdoc": {
    "kind": "user",
    "methods": {
      "withdraw()": {
        "notice": "Withdraw balance to wallet"
      }
    },
    "version": 1
  }
}